:020000040800F2
:10000000D006002065020008A9110008A11100080F
:10001000A51100085D040008791300080000000025
:10002000000000000000000000000000B111000806
:100030006104000800000000AD110008B5110008BF
:100040007F0200087F0200087F0200087F0200088C
:100050007F0200087F0200087F0200087F0200087C
:100060007F0200087F0200087F0200087F0200086C
:100070007F0200087F0200087F0200087F0200085C
:100080007F0200087F0200087F02000800000000D5
:100090000000000000000000000000007F020008D7
:1000A0007F0200087F0200087F0200087F0200082C
:1000B000751200087F0200087F0200087F02000816
:1000C0007F0200087F0200087F0200087F0200080C
:1000D0007F0200087F0200087F0200080000000085
:1000E0007F0200087F0200087F0200080000000075
:1000F0000000000000000000000000007F02000877
:10010000000000007F0200087F0200087F02000854
:1001100000000000000000000000000000000000DF
:100120007F0200087F0200087F0200087F020008AB
:100130007F02000800000000000000000000000036
:100140000000000000000000000000007F02000826
:100150007F0200087F0200087F0200087F0200087B
:100160007F0200087F02000800000000000000007D
:10017000000000000000000000000000000000007F
:10018000000000007F0200080000000000000000E6
:100190007F0200087F02000800F002F800F052F829
:1001A00014A696E8000CB244B344DA4501D100F03D
:1001B00049F8BAE80F000FA696E83000A5EB040551
:1001C00004EB0607AAEB0704A7F101074FEA151590
:1001D0004FEA3414A4F10104AC4201D300F032F828
:1001E00013F0010F18BFFB1A43F0010300F001F8F0
:1001F000DBE71847A0130000C0130000103A24BF2B
:1002000078C878C1FAD8520724BF30C830C144BF7B
:1002100004680C6070470000704700000023002451
:1002200000250026103A28BF78C1FBD8520728BF06
:1002300030C148BF0B6070471FB501F095F91FBD75
:1002400010B510BD00F0D0F81146FFF7F5FF01F032
:1002500095F800F0EEF803B4FFF7F2FF03BC00F0EE
:10026000F5F800000948804709480047FEE7FEE727
:10027000FEE7FEE7FEE7FEE7FEE7FEE7FEE7FEE756
:1002800004480549054A064B704700006112000802
:1002900099010008D0000020D0060020D0020020E4
:1002A000D002002053EA020C00F069802DE9F04BE7
:1002B0004FF00006002B1FBFB3FA83F503FA05F4D5
:1002C00024FA05F65E4012BF1643B2FA82F502FA2E
:1002D00005F4C5F120051EBF22FA05FC44EA0C0412
:1002E000203556EA044C4FEA144418BF641C4FF002
:1002F00000084FF00009904271EB030C39D300293C
:1003000019BFB1FA81F701FA07F6B0FA80F700FADF
:1003100007F6C7F120071EBF20FA07FC46EA0C06C5
:100320002037B6FBF4FCA7EB0507103F07F01F0BC7
:10033000CBF120062CFA06F60CFA0BFB44BFB346B1
:100340000026202FA4BF5E464FF0000B5BEA060C90
:1003500008BF4FF0010B19EB0B0948EB0608ABFB8C
:10036000027C06FB02CC0BFB03CCC01B71EB0C0127
:10037000C1E70B46024641464846BDE8F08B13B53F
:10038000084318BF4FF0FF300146AFF30080BDE8CF
:100390001C4070474FF0000200B513469446964645
:1003A000203922BFA0E80C50A0E80C50B1F1200188
:1003B000BFF4F7AF090728BFA0E80C5048BF0CC036
:1003C0005DF804EB890028BF40F8042B08BF704794
:1003D00048BF20F8022B11F0804F18BF00F8012B06
:1003E0007047704770477047754600F02BF8AE466F
:1003F00005006946534620F00700854618B020B531
:10040000FFF73EFFBDE820404FF000064FF0000729
:100410004FF000084FF0000BAC46ACE8C009ACE868
:10042000C009ACE8C009ACE8C00921F007018D465D
:10043000704710B50446AFF300802046BDE8104079
:10044000FFF709BF00487047180000200149182035
:10045000ABBEFEE72600020070470000FEE700008A
:1004600070470000B0B5044600F0E6F8054640F2DB
:100470000000C2F200000078611C18BF044400BFF5
:1004800000F0DAF8401BA042FAD3B0BD2DE9F04FDE
:1004900083B000F1200200F13E4741F200050092D6
:1004A00007F1FF77C4F2020507224FEAB726A842F8
:1004B00008BF042200254FF000084FF00009042E69
:1004C00038BF4FEAB72201920AE000BF09F10109E3
:1004D00008F10208B9F1100F05F1040500F0A2803F
:1004E0000F68012202FA09FE17EA0E0AEED0D1F8CF
:1004F00004C003220CF003077E1E02FA08F4012E4A
:100500006FEA040B12D88468CE6804EA0B0406FA7A
:1005100008F634438460446824EA0E06CCF30014E1
:1005200004FA09F42643466004E000BF032F01D11A
:1005300003271EE0C6688C6806EA0B0604FA08F476
:100540002643022FC66014D16FF00302009E02EA18
:10055000590756F807C005F01C040F220B69A2408A
:100560002CEA0202A3401A43F251D1F804C00CF065
:100570000307026807FA08F302EA0B021A431CF4A5
:10058000403F0260A2D0002243F644030292C4F22C
:1005900002031A6843F6004442F480421A601A6863
:1005A000C4F2010402F480420292029A29F003028A
:1005B0004FF6084C2244CFF6FF7C52F80C3005F081
:1005C0000C070F26BE40B343019E06FA07F73B43D4
:1005D00042F80C30A2684B6842EA0A0743F60C4C1A
:1005E000DE0258BF22EA0A07A760C4F2010CDCF859
:1005F00000209E0242EA0A0758BF22EA0A07CCF806
:10060000007062689E0342EA0A0758BF22EA0A079E
:1006100067602268DB0342EA0A0758BF22EA0A073A
:10062000276053E703B0BDE8F08F0000002A08BF41
:10063000090481617047000040F2CC00C2F2000062
:100640000068704740F2000040F2CC01C2F20000A6
:10065000C2F2000100780A68104408607047000088
:1006600080B543F60040C4F20200016841F4007115
:100670000160016841F480610160016841F48071AA
:100680000160032000F086F80F2000F005F800F06C
:1006900027F8002080BD000070B540F20006C2F2CD
:1006A000000640F208013278C2F200014FF47A737A
:1006B0000968B3FBF2F20446B1FBF2F1084600F020
:1006C00039FB0F2C4FF0010508D838B94FF0FF3037
:1006D00021460022002500F031F87460284670BDE4
:1006E00082B0002043F640010190C4F202014A6842
:1006F00042F480424A604A6802F480420192019AC0
:100700000090086840F080500860086800F0805051
:100710000090009802B07047002848BF704700F072
:100720001F01012202FA01F11C2202EAD0004EF25E
:100730000012CEF2000281507047000010B54EF654
:100740000C5CCEF2000CDCF80030C3F3022E8EF00D
:100750000704042C28BF0424BEF103034FF0FF3E1E
:100760000EFA04F438BF0023A14399400EFA03F3B4
:100770009A43114300F00F0200F160430901043A6B
:1007800003F564436244002848BF02F10C0319706A
:1007900010BD00004EF60C51CEF200010A684FF673
:1007A000FF031A4060F30A2242F0806040F0FD70BF
:1007B00008607047002804BF012070472DE9F04110
:1007C00043F60808C4F202080446D8F8F8030D46B8
:1007D00000F00700814207D988F8F853D8F8F803E9
:1007E00000F00700A84277D12068810717D541079C
:1007F00005D5D8F8001041F4E051C8F80010010701
:1008000005D5D8F8001041F46041C8F80010D8F8B8
:100810000010A26821F0F0011143C8F80010C007D1
:1008200040D1D8F8F80300F00700854207D288F8D5
:10083000F853D8F8F80300F00700A8424CD120681C
:10084000410707D5D8F80010E26821F4E0511143C0
:10085000C8F80010000708D5D8F80000216920F476
:10086000604040EAC100C8F8000000F055F8D8F830
:10087000001041F28252C1F30311C0F60002515C34
:1008800040F2080220FA01F140F20400C2F2000036
:100890000068C2F200021160FFF7FEFE0020BDE812
:1008A000F08100BF6068811E022907D258F8081C39
:1008B00089015CBF0120BDE8F08111E0012807D16A
:1008C00058F8081C89035CBF0120BDE8F08107E0EF
:1008D00058F8081C890703D40120BDE8F08100BF47
:1008E000D8F8001021F003010843C8F80000FFF712
:1008F000A3FE064641F28837D8F80000616800F090
:100900000C00B0EB810F8CD0FFF796FE801BB84235
:10091000F2D90320BDE8F08110B543F60404C4F217
:1009200002046168C1F3810142F20040C0F2F400A8
:10093000DFE801F002040A0210BD00BF47F64000E4
:10094000C0F27D1010BD00BF2068216823684902F5
:1009500047F64001C0F27D1100F03F02C3F388105A
:100960005CBF42F20041C0F2F401A1FB0001002390
:10097000FFF798FC21680222C1F3014102EB41011B
:10098000B0FBF1F010BD0000002804BF012070474B
:100990002DE9F04182B00446007843F60006C00716
:1009A000C4F202060CD0B06800F00C00042840F03D
:1009B00081803068800303D56068002800F068817A
:1009C000207880071BD5B06810F00C0F09D0B068F4
:1009D00000F00C00082840F087807068400200F1A9
:1009E00083803068800703D5E068012840F050819B
:1009F0003068216920F0F80040EAC10030602078BA
:100A0000000713D4207840072AD4A569002D00F0F0
:100A10003A81B06800F00C00082840F0A580012D54
:100A200040F00E81012002B0BDE8F081606900282D
:100A300000F082800020C4F247200121C0F8801E0F
:100A4000FFF7FAFD054600BF706F8007DAD4FFF7A5
:100A5000F3FD401B0228F7D9032002B0BDE8F08166
:100A6000306C5FEAC0080AD400200190306C40F07E
:100A700080503064306C00F080500190019847F253
:100A80000007C4F200073868C00547D4386840F44E
:100A900080703860FFF7D0FD054600BF3868C0059C
:100AA0003CD4FFF7C9FD401B0228F7D9032002B050
:100AB000BDE8F081B06800F00C00082803D1706830
:100AC00040023FF576AF61683068B1F5803F07D0EE
:100AD000B1F5A02F40F09A8040F48020306030685B
:100AE00040F4803030609AE0E068002840F2000076
:100AF000C4F247205CD001210160FFF79DFD05464F
:100B0000306880073FF574AFFFF796FD401B022861
:100B1000F6D9032002B0BDE8F08100BFA168306FB4
:100B2000012905D0052955D140F004003067306F08
:100B300040F00100306756E00020C4F24720002159
:100B4000C0F8801EFFF778FD054600BF706F800774
:100B50007FF558AFFFF770FD401B0228F6D9032040
:100B600002B0BDE8F08100BF0027C4F24727002093
:100B70003866FFF761FD022D05460DD13068800112
:100B800040F18A80FFF758FD401B02284FF0030018
:100B9000F4D902B0BDE8F0813068800173D5FFF769
:100BA0004BFD401B02284FF00300F5D9F1E700BFD1
:100BB00000210160FFF740FD054600BF3068800757
:100BC0007FF51DAFFFF738FD401B02284FF00300F3
:100BD000F4D9DEE720F001003067306F002920F003
:100BE000040030677AD0FFF727FD054641F28837C9
:100BF000306F800700F18480FFF71EFD401BB84274
:100C0000F6D9032002B0BDE8F08100BF20F48030A7
:100C100030603068002920F4802030607AD0FFF7FF
:100C20000BFD0546306880033FF5CAAEFFF704FDB3
:100C3000401B6428F6D9032002B0BDE8F08100BF54
:100C40007068E16900F480028A4221D1216A00F0D3
:100C50003F028A421CD147F6C071626A0140B1EB83
:100C6000821F15D1A16A4FF6FF73C903994300F49F
:100C70004032A1F580318A420AD1E16A00F0706009
:100C8000B0EB016F04D1002002B0BDE8F08100BFDD
:100C9000012002B0BDE8F08104F11C052FCD08430E
:100CA00040EA8210D9034FF6FF729143A1F58031DB
:100CB00040EA05600843706001203866FFF7BCFC1D
:100CC000044600BF30688001DDD4FFF7B5FC001B8F
:100CD00002284FF00300F5D95BE700BFFFF7ACFC3B
:100CE000054641F2883700BF306F800708D5FFF70F
:100CF000A3FC401BB8424FF00300F5D949E700BF01
:100D0000B8F1000F3FF581AE306C20F080503064B8
:100D10007BE600BFFFF790FC054600BF306880030C
:100D20007FF54EAEFFF788FC401B64284FF00300B0
:100D3000F4D92EE7411E0020B0EB116F1CBF01203B
:100D400070474EF21002CEF2000251604EF623516F
:100D5000CEF20001F0230B70072190601160704704
:100D6000704700007047000090F83C20012A4FF0C7
:100D7000020241D010B580F83D200268D2F804E0AC
:100D8000D2F808C00C682EF07003234340F6FF34FD
:100D9000C4F20004A242536010DCB2F1804F1ED0B6
:100DA00040F20043C4F200039A4218D040F6000318
:100DB000C4F200039A4212D016E000BF40F600438E
:100DC000C4F200039A420AD044F20003C4F20103C1
:100DD0009A4204D00023C4F201039A4204D1496824
:100DE0002CF08003194391600121002280F83D100E
:100DF00080F83C20BDE8104010467047002804BF32
:100E00000120704710B5044690F83D0028B9002035
:100E100084F83C00204600F01FF8022084F83D00D2
:100E20002068211D00F02CFA012084F8460084F887
:100E30003E0084F83F0084F8400084F8410084F8C4
:100E4000420084F8430084F8440084F8450084F8A4
:100E50003D00002010BD00000068B0F1804F18BFB9
:100E6000704780B582B00020019043F64000C4F284
:100E700002000168002241F00101016000680021C8
:100E800000F00100019001981C20FFF757FC1C2086
:100E900002B0BDE88040FFF73FBC000090F83C2066
:100EA000012A4FF002026CD080B580F83D20D0F8C6
:100EB00000C04FF67772DCF8083023EA0202CCF863
:100EC00008200B684F2B29DC1F2B45DD202B46D03B
:100ED000302B44D0402B40F0AF80D1F804E0C968FB
:100EE000DCF82030DCF8202022F00102CCF82020B1
:100EF000DCF8182022F0F00242EA011123F00A0285
:100F000042EA0E02CCF81810CCF82020DCF80810C9
:100F100041F0470121F0300128E000BF6F2B33DDA5
:100F2000B3F5005F74D0B3F5805F21D0702B40F033
:100F30008380D1E901E3C968DCF8082043EA0E03A5
:100F400022F47F4243EA01211143CCF80810DCF877
:100F5000081041F0770109E00BB1102B6CD1DCF8DF
:100F6000081021F07001194341F00701CCF8081076
:100F70000022012180F83D10002180F83C10BDE8DE
:100F800080401046704700BF502B21D0602B53D1BA
:100F9000D1F804E0C968DCF82030DCF8202022F029
:100FA0001002CCF82020DCF8182022F4704242EA2B
:100FB000013123F0A00242EA0E12CCF81810CCF84E
:100FC0002020DCF8081041F0670121F01001CDE786
:100FD000D1F804E0C968DCF82030DCF8202022F0E9
:100FE0000102CCF82020DCF8182022F0F00242EABE
:100FF000011123F00A0242EA0E02CCF81810CCF8D4
:101000002020DCF8081041F0570121F02001ADE765
:10101000D1E901E3C968DCF8082043EA0E0322F4B1
:101020007F4243EA01211143CCF80810DCF8081094
:1010300041F480419AE700BF01229AE7704700001F
:1010400070B504460068C5680669B10716D515F085
:10105000020113D06FF00201016101212177806943
:10106000800703D02046FFF7E9FF05E0204600F0A7
:101070008FF8204600F08EF800202077700719D5F1
:1010800015F0040016D020686FF004010161022100
:101090002177806910F4407F04D02046FFF7CEFF0F
:1010A00006E000BF204600F073F8204600F072F81A
:1010B00000202077300717D515F0080014D02068DD
:1010C0006FF00801016104212177C069800703D016
:1010D0002046FFF7B3FF05E0204600F059F8204610
:1010E00000F058F800202077F00619D515F0100010
:1010F00016D020686FF01001016108212177C069C6
:1011000010F4407F04D02046FFF798FF06E000BFB0
:10111000204600F03DF8204600F03CF80020207703
:10112000F00718BF15F0010002D1300609D412E013
:1011300020686FF001010161204600F02DF83006B3
:1011400009D515F0800006D020686FF0800101619C
:101150002046FFF705FE700609D515F0400006D0C1
:1011600020686FF040010161204600F017F8B006DA
:1011700058BF70BD15F0200008D021686FF0200224
:1011800020460A61BDE87040FFF7ECBD70BD00006D
:101190007047000070470000704700007047000073
:1011A000FEE70000FEE70000FEE7000070470000D9
:1011B00070470000FFF746BA70B592B006AC204603
:1011C0003021FFF7E7F8002543F640000595CDE90B
:1011D0000355CDE901550095C4F2020001680226CD
:1011E00041F080510160006800F08050009000984C
:1011F00047F200000095C4F20000016841F440414C
:101200000160006800F440400090009801200690C2
:101210004FF4803007904FF480000D900C200E901A
:101220006020CDE90F060420119020460C96FFF7B0
:10123000ABFB18B172B600BFFEE700BF0F20CDE9CF
:1012400001064FF48050CDE9040501A80321039560
:10125000FFF7B0FA10B172B6FEE700BF12B070BD72
:101260004EF68850CEF20000016841F47001016032
:101270007047000040F28400C2F20000FFF7E0BEB9
:10128000B0B540F2FF7E0568C4F2000E40F2000CDB
:101290007045C4F2010C1DDD40F60003C4F20003EA
:1012A000984220D060451ED040F60043C4F20003AF
:1012B000984218D04FF6FF73C4F2000398421DDC29
:1012C000704527DCB0F1804F3CD040F20043C4F2BF
:1012D000000335E0B0F1804F05D040F20043C4F286
:1012E00000039842E6D14B6825F0700243EA0205FC
:1012F0004FF6FF73C4F200039842E1DD44F2FF337E
:10130000C4F20103984211DC60451BD044F2000393
:1013100014E000BF40F60003C4F20003984211D06D
:1013200040F60043C4F200030AE000BF44F60003A5
:10133000C4F20103984205D044F20043C4F2010311
:10134000984204D1CB6825F4407243EA02050A684A
:101350008C684B696045C462826202D10969CCF82D
:101360003010026825F0800142F004021943026047
:10137000012242610160B0BDFEE7000088B040F28A
:101380001447C4F20207FFF76BF9FFF715FF0026B9
:1013900043F630000596CDE90366CDE90166069671
:1013A000C4F20200016807F57B7441F0040101609A
:1013B0000168002201F00401069106990696016871
:1013C0004FF4804941F080010160016801F0800123
:1013D000069106990696016841F0020101600168D4
:1013E00001F00201069106990696016841F001019B
:1013F000016000684FF4804100F0010006900698FB
:101400002046FFF713F9A7F114052846FF21002213
:101410004FF0FF0AFFF70AF94FF400500DF10408EE
:10142000CDE90106204641460396FFF72FF8CDF897
:1014300004904FF0010920464146CDE902960496FA
:10144000FFF724F828464146CDE901A9CDE9036616
:10145000FFF71CF840F27805C2F200054FF080411A
:10146000284640F80C1F42F20F710496CDE902663F
:10147000CDE90666C0E90116C0E903168661FFF7EB
:10148000BDFC18B172B600BFFEE700BF4FF480503C
:1014900005F10C04019001A92046FFF7FFFC18B1EB
:1014A00072B600BFFEE700BF06A92046FFF75CFC4E
:1014B00010B172B6FEE700BF40F6140440F20C060D
:1014C000C4F202044FF6FF7845F25559C2F2000605
:1014D000D7F8FC0381046860FAD557F8140C20EAA9
:1014E000080047F8140C206820F480402060642035
:1014F000FEF7B8FF57F8040C2860206840F48040DD
:1015000020606420FEF7AEFF57F8140C40EA090093
:1015100047F8140C286800F07F007F28D8D10020FD
:10152000A86000BF3968305C01F47F41084438602E
:10153000386820F4704038600120FEF793FF386867
:1015400040F4704038600120FEF78CFF386820F4CA
:10155000704038604FF47A70FEF784FFA86801305D
:101560000A28A860DED3B3E7F1EE100A4FF6FF7148
:10157000C0F2C03120EA010040F04070E1EE100AF4
:10158000704700000000000000000102030406078D
:1015900008090000B815000800000020180000002D
:1015A000FC010008D015000818000020B806000053
:1015B0001C020008000000000100000010000000F4
:1015C0000024F4003F065B4F666D7D077F6F0000CF
:040000050800019955
:00000001FF
